:10000000F3EF00F00000000000EF00F0000000003F
:0A0010000000000000000000F3D71C
:04001C0000001200CE
:10002000080E0C6E230E0D6E0D2EFED70C2EFCD777
:020030001200BC
:0C003200100E0D6E0D2EFED70000120007
:10003E004BBE02D0819601D081864BBC02D08194FA
:10004E0001D081844BBA02D0819201D081824BB80B
:10005E0002D0819001D0818044B002D0818801D03D
:10006E008198818AD4DF819A4BB602D0819601D0D5
:10007E0081864BB402D0819401D081844BB202D0E0
:10008E00819201D081824BB002D0819001D08180CB
:10009E0044B002D0818801D08198818AB8DF819ADC
:0C00AE0044A002D0B6DF01D0BDDF12007C
:0C00BA0044904AC04BF0BEDF44801200AE
:1000C6000900F5CFE6FF0006FBE10106F9E11200A3
:1000D600939A93989390939293949396819A8198F6
:1000E600819681948192819098DF97DF96DF818255
:1000F6008180818A90DF819A90DF818A8CDF819A64
:100106008CDF818A88DF819A88DF8190818A83DF0C
:10011600819A83DF818A7FDF819A81928186818AB3
:100126007ADF819A7ADF81968180818A74DF819A6B
:100136008190818A70DF819A70DF818A6CDF819A73
:100146008180818A68DF819A68DF8190818A63DF96
:10015600819A8186818481828180818A5CDF819A0D
:060166005CDF4480120082
:10016C000FD0800E456E19D0C00E456E16D0940E71
:10017C00456E13D0D40E456E10D0800E456E0DD04A
:10018C004550010AEEE04550020AEEE04550030AE4
:10019C00EEE04550040AEEE0F0D74604006E455000
:1001AC00002600C045F000C04BF043DF4490496A84
:1001BC0049504724E96E000E4820EA6EEE520BE0DF
:1001CC0049504724E96E000E4820EA6EEECF4AF003
:0A01DC006EDF492AEDD744801200BF
:1001E60073EC01F00F0EC16E070EB46E936A010E2A
:1001F600966E846A6DDF010E4B6E1EDF0C0E4B6E23
:100206001BDF010E456E010E466E220E476E000E76
:10021600486EA9DF150E0B6E4B0E0C6EBE0E0D6EE4
:100226000D2EFED70C2EFCD70B2EFAD7000084A07D
:100236001FD08482010E4B6EFFDE0C0E4B6EFCDE71
:10024600010E456E010E466E330E476E000E486E69
:100256008ADF060E0B6E130E0C6EAD0E0D6E0D2E96
:10026600FED70C2EFCD70B2EFAD7000000001ED0AE
:100276008492010E4B6EE0DE0C0E4B6EDDDE010E3F
:10028600456E010E466E150E476E000E486E6BDF0C
:10029600060E0B6E130E0C6EAD0E0D6E0D2EFED7EA
:1002A6000C2EFCD70B2EFAD700000000C0D7FFD7C4
:1002E60010EE15F02F0E006E010E016EB60EF66EB4
:0E02F600020EF76E000EF86E63EC00F01200C0
:0D02B600414C41524D4520415449564F00E6
:1002C300494E494349414E444F20414C41524D45CB
:0102D300002A
:1002D400414C41524D452044495350415241444FB1
:0102E4000019
:020000040030CA
:0E000000000C1F1EFF8381FF0FC00FE00F409A
:00000001FF
